{"abi":[{"type":"function","name":"mint","inputs":[{"name":"recipient","type":"address","internalType":"address"},{"name":"challengeId","type":"uint256","internalType":"uint256"}],"outputs":[],"stateMutability":"nonpayable"},{"type":"function","name":"nextTokenId","inputs":[],"outputs":[{"name":"","type":"uint256","internalType":"uint256"}],"stateMutability":"view"},{"type":"event","name":"FlagMinted","inputs":[{"name":"minter","type":"address","indexed":true,"internalType":"address"},{"name":"tokenId","type":"uint256","indexed":true,"internalType":"uint256"},{"name":"challengeId","type":"uint256","indexed":true,"internalType":"uint256"}],"anonymous":false}],"bytecode":{"object":"0x6080604052348015600e575f5ffd5b5061027a8061001c5f395ff3fe608060405234801561000f575f5ffd5b5060043610610034575f3560e01c806340c10f191461003857806375794a3c14610054575b5f5ffd5b610052600480360381019061004d919061016a565b610072565b005b61005c6100d4565b60405161006991906101b7565b60405180910390f35b5f5f5f815480929190610084906101fd565b91905055905081818473ffffffffffffffffffffffffffffffffffffffff167fef633ead5fa8a224bb818380531535925c31239123ac0a6f54c9135616f0547560405160405180910390a4505050565b5f5481565b5f5ffd5b5f73ffffffffffffffffffffffffffffffffffffffff82169050919050565b5f610106826100dd565b9050919050565b610116816100fc565b8114610120575f5ffd5b50565b5f813590506101318161010d565b92915050565b5f819050919050565b61014981610137565b8114610153575f5ffd5b50565b5f8135905061016481610140565b92915050565b5f5f604083850312156101805761017f6100d9565b5b5f61018d85828601610123565b925050602061019e85828601610156565b9150509250929050565b6101b181610137565b82525050565b5f6020820190506101ca5f8301846101a8565b92915050565b7f4e487b71000000000000000000000000000000000000000000000000000000005f52601160045260245ffd5b5f61020782610137565b91507fffffffffffffffffffffffffffffffffffffffffffffffffffffffffffffffff8203610239576102386101d0565b5b60018201905091905056fea2646970667358221220c0531199d4bc835bb2835a9bb37f15a02bb5ca354946f3e7a8d688f542388d0064736f6c634300081c0033","linkReferences":{}},"methodIdentifiers":{"mint(address,uint256)":"40c10f19","nextTokenId()":"75794a3c"},"id":0}